S01200007465737454726176656F2E73726563E1
S31501A0000004F01FE5547EA00170B58EB040F2577082
S31501A00010009000208DF804009620ADF80800282055
S31501A00020ADF80A0001208DF8050032208DF80600F2
S31501A0003041F28830ADF80C002824DFF83C5A04AE12
S31501A0004022002900300001F07EED684601F0ECFDAA
S31501A000500EB070BD0020704710B40200EB24200042
S31501A000600C00611EE4B2002C12D014786040521C20
S31501A0007000242300DBB2082BF2DAC40704D5C0B2F0
S31501A00080400890F08C0001E0C0B240085B1CF1E78B
S31501A00090C0B210BC704738B50400E4B2002C01D040
S31501A000A000201BE0002542F21070854204DA00BF51
S31501A000B002F021FF6D1CF6E702F04AEF010072B6CD
S31501A000C0DFF8B809DFF8B8291060DFF8B009DFF862
S31501A000D0BC2C1060080002F040EF012032BD2DE9D2
S31501A000E0F04385B004000D0016001F0002A80021F0
S31501A000F00022C0E90012DFF88C090078002800F080
S31501A00100B581DFF880090078012814D0C0F0AA8152
S31501A00110032873D050D3052800F0B480C0F0908096
S31501A00120072800F0F980C0F0D580092800F0798170
S31501A00130C0F0318196E105208DF8080071208DF877
S31501A00140090001208DF80A00FF208DF80B00002080
S31501A001508DF80C0001208DF80D0000208DF80E0001
S31501A0016000208DF80F0070787F2818D103208DF814
S31501A0017008007F208DF8090031208DF80A00722031
S31501A001808DF80B0000208DF80C0000208DF80D00D5
S31501A0019000208DF80E0000208DF80F0002E001204E
S31501A001A08DF80D005FF008080DF108094246494691
S31501A001B0300001F0C8EC55E105208DF8080071204A
S31501A001C08DF8090002208DF80A00FF208DF80B009A
S31501A001D000208DF80C0004208DF80D0000208DF86C
S31501A001E00E0000208DF80F005FF008080DF1080938
S31501A001F042464946300001F0A6EC33E105208DF8D0
S70501A07E5487
