S019000007473959573730313030303035384141202020202000CE
S31501A0000004F01FE55C7CA00170B58EB040F257707C
S31501A00010009000208DF804006420ADF80800282087
S31501A00020ADF80A0001208DF8050032208DF80600F2
S31501A0003041F28830ADF80C002824DFF8545C04AEF8
S31501A0004022002900300001F09EEC684601F00CFD6B
S31501A000500EB070BD0020704710B40200EB24200042
S31501A000600C00611EE4B2002C12D014786040521C20
S31501A0007000242300DBB2082BF2DAC40704D5C0B2F0
S31501A00080400890F08C0001E0C0B240085B1CF1E78B
S31501A00090C0B210BC704738B50400E4B2002C01D040
S31501A000A000201BE0002542F21070854204DA00BF51
S31501A000B002F041FE6D1CF6E702F06AEE010072B68F
S31501A000C0DFF8D00BDFF8D02B1060DFF8C80BDFF814
S31501A000D0CC2B1060080002F060EE012032BD2DE9A4
S31501A000E0F04385B004000D0016001F0002A80021F0
S31501A000F00022C0E90012DFF8A80B0078002800F062
S31501A001006C81DFF89C0B0078012813D0C0F06181C7
S31501A0011003285DD03AD3052800F09E807AD307281C
S31501A0012000F0E880C0F0BA80092800F02781C0F06D
S31501A0013003814EE105208DF8080071208DF8090094
S31501A0014001208DF80A00FF208DF80B0000208DF804
S31501A001500C0001208DF80D0000208DF80E00002066
S31501A001608DF80F0070787F2803D105208DF80D003A
S31501A0017002E001208DF80D005FF008080DF10809D5
S31501A0018042464946300001F0FEEB22E105208DF8FA
S31501A00190080071208DF8090002208DF80A00FF20C1
S31501A001A08DF80B0000208DF80C0004208DF80D00B1
S31501A001B000208DF80E0000208DF80F005FF00808D2
S31501A001C00DF1080942464946300001F0DCEB00E199
S31501A001D005208DF8080071208DF8090003208DF8FF
S31501A001E00A00FF208DF80B0000208DF80C000220DC
S31501A001F08DF80D0000208DF80E0000208DF80F005F
S70501A07C5C81
